:020000040800F2
:10000000580C00202912000835100008371000088D
:100010003B1000083F1000084310000800000000DB
:10002000000000000000000000000000491000086F
:1000300047100008000000004B100008B73C000803
:10004000431200084312000843120008431200083C
:10005000431200084312000843120008431200082C
:10006000431200084312000843120008431200081C
:10007000431200084312000843120008431200080C
:1000800043120008431200084312000843120008FC
:1000900043120008431200084312000843120008EC
:1000A00043120008431200084312000843120008DC
:1000B00043120008431200084312000843120008CC
:1000C00043120008431200084312000843120008BC
:1000D00043120008C33B0008431200084312000803
:1000E000431200084312000843120008431200089C
:1000F000431200084312000843120008431200088C
:10010000431200084312000843120008431200087B
:10011000431200084312000843120008431200086B
:10012000431200084312000843120008431200085B
:1001300000F002F800F03AF80AA090E8000C8244BF
:100140008344AAF10107DA4501D100F02FF8AFF29C
:10015000090EBAE80F0013F0010F18BFFB1A43F0A5
:10016000010318473050000050500000103A24BFDF
:1001700078C878C1FAD8520724BF30C830C144BF0C
:1001800004680C607047000000230024002500264E
:10019000103A28BF78C1FBD8520728BF30C148BFEA
:1001A0000B6070471FB51FBD10B510BD03F08AFE70
:1001B0001146FFF7F7FF00F009F803F0A8FE03B4BB
:1001C000FFF7F2FF03BC03F0ADFE000008B500240A
:1001D0000020009003F07CFD03F006FD03F098FC86
:1001E00002F075FD02F036FB03F05CFC02F0F8FE55
:1001F000F7A20621022002F010FDF9A2002104203E
:1002000002F00BFD4622FB49FB4803F0BFFBF94817
:10021000808CF0B1F948006808B9012000E00020A6
:10022000F64908604FF04602F549F34803F0BFFB7A
:100230004622F049F04803F0A9FB322003F020FDEC
:10024000F048D0F8BC0108B9012000E00020EB49DB
:100250000860F7E34622E749E74803F097FBE548E3
:10026000408C00287ED000208DF800008DF8010021
:10027000E9E3E54802F012FFDE48008C002872D066
:10028000E1480088DB490988884209DD0020DF4910
:1002900008609DF8000040F001008DF8000008E0C3
:1002A0000120DA4908609DF8000000F0FE008DF89A
:1002B0000000D5484088CF494988884209DD0020A0
:1002C000D34908609DF8000040F002008DF800005E
:1002D00008E00120CE4908609DF8000000F0FD0014
:1002E0008DF80000C8488088C2498988884209DDA5
:1002F0000020C84908609DF8000040F004008DF817
:10030000000008E00120C34908609DF8000000F0EB
:10031000FB008DF80000BC48C088B649C9888842F7
:1003200009DD0020BC4908609DF8000040F008008D
:100330008DF8000008E00120B74908609DF8000032
:1003400000F0F7008DF80000AF480089A94909893D
:1003500088420CDD0020B14908609DF8000040F0A3
:10036000100001E0B8E31EE18DF8000008E0012074
:10037000AA4908609DF8000000F0EF008DF8000029
:10038000A14840899B494989884209DD0020A44948
:1003900008609DF8000040F020008DF8000008E0A3
:1003A00001209F4908609DF8000000F0DF008DF8F3
:1003B0000000954880898F498989884209DD00209D
:1003C000984908609DF8000040F040008DF800005A
:1003D00008E00120934908609DF8000000F0BF008C
:1003E0008DF800008848C0898249C989884209DDA2
:1003F00000208D4908609DF8000040F080008DF8D5
:10040000000008E00120884908609DF8000000F025
:100410007F008DF800007C48008A7649098A88426E
:1004200009DD0020814908609DF8010040F00100CD
:100430008DF8010008E001207C4908609DF801006A
:1004400000F0FE008DF801006F48408A6949498A32
:10045000884209DD0020764908609DF8010040F0DF
:1004600002008DF8010008E00120714908609DF844
:10047000010000F0FD008DF801006348808A5D49AD
:10048000898A884209DD00206A4908609DF80100D8
:1004900040F004008DF8010008E001206549086083
:1004A0009DF8010000F0FB008DF801005648C08A5D
:1004B0005049C98A884209DD00205F4908609DF8DB
:1004C000010040F008008DF8010008E001205A49C1
:1004D00008609DF8010000F0F7008DF801004A481F
:1004E000008B4449098B884209DD0020534908608C
:1004F0009DF8010040F010008DF8010008E0012097
:100500004E4908609DF8010000F0EF008DF80100F1
:100510003D48408B3749498B884209DD00204849D6
:1005200008609DF8010040F020008DF8010008E00F
:100530000120434908609DF8010000F0DF008DF8BC
:1005400001003148808B2B49898B884209DD0020CE
:100550003C4908609DF8010040F040008DF8010022
:1005600008E00120374908609DF8010000F0BF0055
:100570008DF801002448C08B1E49C98B884209DDD3
:100580000020314908609DF8010040F080008DF89E
:10059000010008E001202C4908609DF8010000F0EE
:1005A0007F008DF801001348008C00287ED116488A
:1005B000008810490988884248DD012013490860F5
:1005C0009DF8000000F0FE008DF8000047E00000FC
:1005D0005369787465656E206368616E6E656C0042
:1005E000677261797363616C652073656E736F7296
:1005F00000000000E800002000F80008BC012242D2
:100600000000002000002242C80000209C0122427D
:1006100098012242BC812142B8812142B481214209
:10062000B0812142AC812142A8812142B8012242FD
:10063000B4012242A4812142A08121429C81214215
:100640009881214294812142908121420020FE49DB
:1006500008609DF8000040F001008DF80000FB48A4
:100660004088FB494988884209DD0120F949086032
:100670009DF8000000F0FD008DF8000008E000206B
:10068000F44908609DF8000040F002008DF8000079
:10069000EE488088EE49898888420BDD0120EE49CA
:1006A00008609DF8000000F0FB0000E050E18DF8CC
:1006B000000008E00020E84908609DF8000040F0D4
:1006C00004008DF80000E148C088E149C9888842EB
:1006D00009DD0120E14908609DF8000000F0F70005
:1006E0008DF8000008E00020DC4908609DF800005B
:1006F00040F008008DF80000D4480089D4490989E9
:10070000884209DD0120D64908609DF8000000F00C
:10071000EF008DF8000008E00020D14908609DF846
:10072000000040F010008DF80000C8484089C8491A
:100730004989884209DD0120CA4908609DF8000006
:1007400000F0DF008DF8000008E00020C5490860D7
:100750009DF8000040F020008DF80000BB48808923
:10076000BB498989884209DD0120BF4908609DF89D
:10077000000000F0BF008DF8000008E00020BA493A
:1007800008609DF8000040F040008DF80000AF4880
:10079000C089AF49C989884209DD0120B349086091
:1007A0009DF8000000F07F008DF8000008E00020B8
:1007B000AE4908609DF8000040F080008DF8000010
:1007C000A248008AA249098A884209DD0120A84975
:1007D00008609DF8010000F0FE008DF8010008E0BF
:1007E0000020A34908609DF8010040F001008DF849
:1007F00001009648408A9649498A884209DD0120CD
:100800009C4908609DF8010000F0FD008DF8010092
:1008100008E00020974908609DF8010040F00200C0
:100820008DF801008948808A8949898A884209DDD2
:100830000120914908609DF8010000F0FB008DF84F
:10084000010008E000208C4908609DF8010040F09C
:1008500004008DF801007D48C08A7D49C98A88421C
:1008600009DD0120854908609DF8010000F0F700CE
:100870008DF8010008E00020804908609DF8010023
:1008800040F008008DF801007048008B7049098B1A
:10089000884209DD01207A4908609DF8010000F0D6
:1008A000EF008DF8010008E00020754908609DF810
:1008B000010040F010008DF801006448408B64494D
:1008C000498B884209DD01206E4908609DF80100CE
:1008D00000F0DF008DF8010008E0002069490860A1
:1008E0009DF8010040F020008DF801005748808BF2
:1008F0005749898B884209DD0120634908609DF8CA
:10090000010000F0BF008DF8010008E000205E4902
:1009100008609DF8010040F040008DF801004B4850
:10092000C08B4B49C98B884209DD012057490860BB
:100930009DF8010000F07F008DF8010008E0002024
:10094000524908609DF8010040F080008DF80100D8
:100950004F480078572828D100BF80214D4801F02A
:100960001FFF0028F9D09DF800104A4801F0AAFEA8
:1009700000BF4021474801F013FF0028F9D000BF15
:100980008021444801F00CFF0028F9D09DF80110A7
:10099000404801F097FE00BF40213E4801F000FFB3
:1009A0000028F9D000203A4908703B480068002828
:1009B00049D11E2003F064F937480068002842D16D
:1009C0007FE0601C84B2012003F05AF9B4F5487F3F
:1009D00077DD002402F05FF800201B4908602F49F2
:1009E000C1F898011C4908601C4908602C49C1F8ED
:1009F000B4011748008C08B9012000E00020194913
:100A000008601348408C08B9012000E00020164916
:100A100008604FF000002249C1F8A801144908609D
:100A200014490860144908601449086014490860B2
:100A300014490860144908601949C1F8900102F08E
:100A4000ACFD30E0DAE244E09C012242C800002024
:100A5000E800002098012242BC812142B881214255
:100A6000B4812142B0812142AC812142A88121423E
:100A7000B8012242B4012242A4812142A081214234
:100A80009C8121429881214294812142908121427E
:100A9000C10000200038014024012242000022420F
:100AA000008021420DE001F0F6FFAFF2DC420621AA
:100AB000022002F0B2F8AFF2D8420021042002F086
:100AC000ACF8FC48006800283FF47BAF4FF000040E
:100AD00001E0FFF7CEBB91E28EE202F08FFCF64818
:100AE00090F88800F5490870F348B0F88A00000AC9
:100AF0004870F14890F88A008870F14800785728CB
:100B00003BD100BF8021EF4801F04AFE0028F9D018
:100B1000EA480178EB4801F0D5FD00BF4021E948E3
:100B200001F03EFE0028F9D000BF8021E54801F029
:100B300037FE0028F9D0E1484178E24801F0C2FDD3
:100B400000BF4021DF4801F02BFE0028F9D000BF94
:100B50008021DC4801F024FE0028F9D0D7488178B4
:100B6000D84801F0AFFD00BF4021D64801F018FE83
:100B70000028F9D00020D2490870D34802F08EFA3C
:100B8000CD48008C002871D0CF480088CA49098818
:100B9000884203DD0020CD49086002E00120CB49F6
:100BA0000860C9484088C4494988884203DD00205C
:100BB000C749086002E00120C5490860C248808832
:100BC000BD498988884203DD0020C249086002E0EF
:100BD0000120C0490860BC48C088B749C98888421C
:100BE00003DD0020BC49086002E00120BA4908602A
:100BF000B5480089B0490989884203DD0020B7491A
:100C0000086002E00120B5490860AF484089AA4960
:100C10004989884203DD0020B149086002E00120D3
:100C2000AF490860A8488089A3498989884203DDC3
:100C30000020AC49086002E00120AA490860A248EF
:100C4000C0899D49C989884203DD0020A649086002
:100C500002E00120A44908609B48008A9649098A5D
:100C6000884204DD0020A149086003E05DE0012026
:100C70009E4908609448408A8F49498A884203DD2A
:100C800000209B49086002E00120994908608E48D5
:100C9000808A8949898A884203DD00209549086055
:100CA00002E00120934908608748C08A8249C98AC6
:100CB000884203DD00209049086002E001208E494F
:100CC00008608148008B7C49098B884203DD002045
:100CD0008A49086002E00120884908607A48408B10
:100CE0007549498B884203DD00208549086002E090
:100CF0000120834908607448808B6F49898B884242
:100D000003DD00207F49086002E001207D49086082
:100D10006D48C08B6849C98B884203DD00207A4941
:100D2000086002E00120784908606348008C0028D0
:100D300071D16548008860490988884203DD012037
:100D40006249086002E00020604908605E4840880F
:100D500059494988884203DD01205D49086002E065
:100D600000205B4908605848808853498988884238
:100D700003DD01205749086002E000205549086062
:100D80005148C0884C49C988884203DD0120524936
:100D9000086002E00020504908604B48008946493D
:100DA0000989884203DD01204C49086002E00020E7
:100DB0004A490860444840893F494989884203DDDF
:100DC00001204749086002E00020454908603E488C
:100DD000808939498989884203DD012041490860B9
:100DE00002E000203F4908603748C0893249C9897C
:100DF000884203DD01203C49086002E000203A49B6
:100E000008603148008A2C49098A884204DD0120A3
:100E10003649086003E089E00020344908602A4828
:100E2000408A2549498A884203DD0120304908600B
:100E300002E000202E4908602348808A1E49898AE2
:100E4000884203DD01202B49086002E00020294987
:100E500008601D48C08A1849C98A884203DD0120FC
:100E60002549086002E00020234908601648008BED
:100E70001149098B884203DD01202049086002E006
:100E800000201E4908601048408B0B49498B88425E
:100E900003DD01201A49086002E0002018490860BB
:100EA0000948808B0449898B88422FDD0120154930
:100EB00008602EE024012242E80000208C0000207F
:100EC000C100002000380140C80000209C012242DF
:100ED00098012242BC812142B8812142B481214241
:100EE000B0812142AC812142A8812142B801224235
:100EF000B4012242A4812142A08121429C8121424D
:100F000098812142948121429081214200203C49D4
:100F100008603C48C08B3C49C98B884203DD0120F6
:100F20003A49086002E00020384908603848006803
:100F3000F0BB1E2002F0A4FE35480068C0BB54E0A0
:100F4000601C84B2012002F09BFEB4F5487F4CDDAA
:100F5000002401F0A0FD00202E4908602E49C1F8B0
:100F600098012E490860A1F1040108602C49C1F8DC
:100F7000B4012548008C08B9012000E0002029496F
:100F800008602148408C08B9012000E00020264973
:100F900008604FF000002249C1F8A8012349086009
:100FA000A1F10401086022490860A1F1040100E0F8
:100FB00022E00860A1F104010860A1F104010860C9
:100FC0000F4908601649C1F8900102F0E6FA01F0F5
:100FD00062FDAFF604220621022001F01EFEAFF6EC
:100FE00000220021042001F018FE094800680028B2
:100FF000A6D04FF0000400E06FE500BFFFF72AB96C
:1010000094812142C8000020E80000209081214204
:10101000240122429C01224200002242BC81214242
:1010200000802142B0812142AC812142B80122429C
:10103000A4812142704700BFFEE700BFFEE700BF6A
:10104000FEE700BFFEE77047704770470CB5002011
:10105000019000906B48006840F480306949086056
:1010600000BF6848006800F4003000900198401C00
:101070000190009818B90198B0F5A06FF1D16148BE
:10108000006810F4003F02D00120009001E0002031
:1010900000900098012842D15B48006840F01000A1
:1010A000594908600846006820F0030008600846B7
:1010B000006840F0020008605248406851494860AA
:1010C0000846406848600846406840F480604860D0
:1010D0000846406820F47C1048600846406840F4A8
:1010E000E81048600846006840F08070086000BF63
:1010F0004448006810F0007FFAD04248406820F071
:101100000300404948600846406840F002004860DB
:1011100000BF3C48406800F00C000828F9D10CBD25
:1011200010B5FFF793FF10BD10B53648006840F0CA
:101130000100344908600846406834490840314994
:10114000486008460068324908402E490860084651
:10115000006820F4802008600846406820F4FE0003
:1011600048604FF41F008860FFF7DAFF4FF000601F
:101170002849086010BD10B5002100200022214B35
:101180005B6803F00C0121B1042906D0082928D19D
:1011900007E0214B214C236027E01F4B1F4C2360AD
:1011A00023E0184B5B6803F47010164B5B6803F484
:1011B0008032022303EB904022B9194B4343174C72
:1011C00023600DE00F4B5B6813F4003F04D0144B19
:1011D0004343124C236003E00F4B43430F4C236007
:1011E00003E00D4B0D4C236000BF00BF054B5B6857
:1011F000C3F303130B4CE15C084B1B68CB40074C5B
:10120000236010BD00100240002002400000FFF8E3
:10121000FFFFF6FE08ED00E000127A0090000020CB
:1012200000093D0094000020094880470948004714
:10123000FEE7FEE7FEE7FEE7FEE7FEE7FEE7FEE786
:10124000FEE7FEE704480549054A064B70470000E3
:10125000291100083101000858060020580C002010
:10126000580800205808002031490143314A1160D4
:10127000704770B5002100230F22C4780CB32D4CA9
:10128000246804F4E064C4F5E064210AC1F10403B5
:10129000CA40447804FA03F18478144021430901D8
:1012A000254C0678A155047804F01F050124AC40B4
:1012B00005786D114FF0E02606EB8505C5F8004175
:1012C00009E0047804F01F050124AC401B4D0678AA
:1012D000761145F8264070BD194A0A400243154B65
:1012E0001B1F1A60704739B1124A121D126802435F
:1012F000104B1B1D1A6006E00E4A121D1268824335
:101300000C4B1B1D1A607047042808D14FF0E021D8
:10131000096941F004014FF0E022116107E04FF04C
:10132000E021096921F004014FF0E02211617047CA
:101330000000FA050CED00E000E400E080E100E0D0
:1013400080FFFF1F10B50446FA48844208D10121EE
:10135000401501F02DF80021601501F029F817E083
:10136000F548844208D10121001501F021F800213F
:10137000201501F01DF80BE0F048844208D101214E
:10138000C80301F015F800214FF4004001F010F8F7
:1013900010BD30B50246002000235068E84C2040C4
:1013A0000D790C6844EA0524204350609068E54CB0
:1013B0002040D1E902542C434D7944EA45042043AE
:1013C0009060D06A20F470000C7C641EE4B2234369
:1013D00040EA0350D06230BD0021016001714171CB
:1013E0008160C16001210174704721B1826842F0BF
:1013F0000102826003E0826822F00102826070478D
:1014000021B1826842F48072826003E0826822F433
:1014100080728260704710B50023CBB21AB1446865
:101420001C43446002E044689C43446010BD8168F2
:1014300041F0080181607047014600208A6812F07F
:10144000080F01D0012000E000207047816841F0C2
:10145000040181607047014600208A6812F0040F81
:1014600001D0012000E00020704721B1826842F4E1
:10147000A002826003E0826822F4A00282607047CA
:10148000014600208A6812F4800F01D0012000E09C
:101490000020704710B50A4600210023416821F45E
:1014A0006041531E41EA4331416010BD21B14268A1
:1014B00042F40062426003E0426822F4006242604B
:1014C0007047F0B504460D4600200021092D11DDBE
:1014D000E068A5F10A0606EB4607072606FA07F1BB
:1014E0008843A5F10A0606EB460603FA06F108430F
:1014F000E0600CE0206905EB4507072606FA07F1D6
:10150000884305EB450603FA06F108432061072AE4
:101510000FDA606B561E06EB86071F2606FA07F1E8
:101520008843561E06EB860605FA06F108436063FB
:1015300022E00D2A0FDA206BD61F06EB86071F2646
:1015400006FA07F18843D61F06EB860605FA06F170
:101550000843206310E0E06AA2F10D0606EB86075F
:101560001F2606FA07F18843A2F10D0606EB860650
:1015700005FA06F10843E062F0BD21B1826842F449
:101580008012826003E0826822F4801282607047D9
:101590000146C86C80B2704766484C30006870479E
:1015A00021B1426842F48062426003E0426822F462
:1015B00080624260704721B1426842F480524260CA
:1015C00003E0426822F48052426070470A460021DC
:1015D000816821F4E04111438160704721B1826844
:1015E00042F40042826003E0826822F4004282609A
:1015F000704721B1826842F40212826003E082687F
:1016000022F4021282607047014600208A6812F4B8
:10161000001F01D0012000E000207047F0B5044613
:101620001546002000220026092911DDE068A1F1FD
:101630000A0707EB470C072707FA0CF29043A1F1C2
:101640000A0707EB470703FA07F21043E0600CE0D4
:10165000206901EB410C072707FA0CF2904301EBDC
:10166000410703FA07F210432061A06BC0F3015653
:10167000EF1C06F1010CA7EB0C0707EB870C1F27EB
:1016800007FA0CF29043EF1C06F1010CA7EB0C07D4
:1016900007EB870701FA07F21043A063F0BD10B50E
:1016A0000A4600210023816B21F44011531E41EAB8
:1016B0000351816310BD08B5002300930090009B87
:1016C0000B440093009B1A6008BD08B50246002039
:1016D0000090009201F12800009B184400900098AF
:1016E000006880B208BD0A4600214168164B1940C7
:1016F0001143416070474162826270470A4600218F
:10170000416821F01F0111434160704740B1094910
:101710000831096841F40001064A0832116007E007
:1017200004490831096821F40001024A08321160B5
:10173000704700000024014000280140003C0140A7
:10174000FFFEF0FFFDF7F1FFFFFD3FFF0246002027
:1017500013680B4201D0012000E000207047CA430B
:101760000260704770B502460020002300240B126F
:101770005568CEB205EA060415681D4202D00CB1C8
:10178000012000E0002070BD00220A12D343036054
:101790007047000001460020FE4A106800F0380043
:1017A000084310607047FB49096821F00801F94AB5
:1017B000116011460968014311607047F5490968D5
:1017C00021F01001F34A11601146096801431160CC
:1017D0007047F148EF494860F04848607047EE486C
:1017E000EC494860ED4848607047EA48006940F0BD
:1017F0008000E84908617047E648006940F08000D1
:10180000E449086170470420E249C96811F0010FFA
:1018100001D001200EE0DF49C96811F0040F01D0AA
:10182000022007E0DB49C96811F0100F01D0032046
:1018300000E00420704700B502460423FFF7E3FFF1
:10184000034603E0FFF7DFFF0346521E012B01D1E1
:10185000002AF7D102B90523184600BD30B5044669
:1018600004254FF43020FFF7E6FF0546042D17D17D
:10187000C848006940F00200C64908610846446152
:10188000006940F0400008614FF43020FFF7D3FFBB
:101890000546C048006941F6FD710840BD49086130
:1018A000284630BD10B504244FF43020FFF7C3FFA5
:1018B0000446042C16D1B748006940F00400B5492D
:1018C00008610846006940F0400008614FF430208C
:1018D000FFF7B1FF0446AF48006941F6FB710840CD
:1018E000AC490861204610BD00B502460423FFF74D
:1018F0008AFF034603E0FFF786FF0346521E012BD3
:1019000001D1002AF7D102B90523184600BD10B550
:1019100004244FF43020FFF7E7FF0446042C16D1CF
:101920009C48006940F004009A4908610846006933
:1019300040F0400008614FF43020FFF7D5FF044627
:101940009448006941F6FB710840924908612046BD
:1019500010BD00208F49C96911F0020F01D001208C
:1019600000E00020704730B5A5250424FFF7F1FF03
:1019700000B100254FF43020FFF75DFF0446042C32
:101980003AD1854883498860844888600846006960
:1019900040F0200008610846006940F040000861FE
:1019A0004FF43020FFF747FF0446042C1BD1794841
:1019B000006941F6DF710840764908610846006910
:1019C00040F01000086176480580E002FFF733FF21
:1019D0000446052C10D06F48006941F6EF710840AD
:1019E0006C49086108E0052C06D06A48006941F698
:1019F000EF71084067490861204630BD78B506465A
:101A00000C46042500200090E802FFF714FF05466D
:101A1000042D24D15F48006940F001005D49086150
:101A20003480E802FFF707FF0546042D10D1B01CF3
:101A30000090200C00990880E802FFF7FCFE0546A4
:101A40005448006941F6FE7108405249086106E0B9
:101A50005048006941F6FE7108404E490861284629
:101A600078BD70B504460D460426F002FFF7E3FE8C
:101A70000646042E11D14748006940F0010045494F
:101A800008612580F002FFF7D6FE0646414800694E
:101A900041F6FE7108403F490861304670BD70B59F
:101AA00005460E460424E002FFF7C5FE0446042C5A
:101AB00017D1394837498860384888600846006936
:101AC00040F0100008612E80E002FFF7B4FE0446EB
:101AD000052C06D02F48006941F6EF7108402D49CA
:101AE0000861204670BD2DE9F04304464FF6FF76AD
:101AF0003746B046B1460425E443E6B2C4F30727AF
:101B0000C4F307484FEA1469E802FFF794FE05465C
:101B1000042D49D120481F49886020488860084624
:101B2000006940F010000861FF2E06D01C48083004
:101B30000680E802FFF77FFE0546042D08D1FF2F3F
:101B400006D017480A300780E802FFF774FE054602
:101B5000042D0AD1B8F1FF0F07D011480C30A0F8BE
:101B60000080E802FFF767FE0546042D0AD1B9F1AF
:101B7000FF0F07D00A480E30A0F80090E802FFF7E8
:101B80005AFE0546052D0FD00248006941F6EF7157
:101B9000084007E00020024023016745AB89EFCDF4
:101BA00000F8FF1F664908612846BDE8F08330B59C
:101BB000054604244FF43020FFF73DFE0446042C74
:101BC00041D160485E4988605F4888600846006986
:101BD00040F0200008610846006940F040000861BC
:101BE0004FF43020FFF727FE0446042C22D154483E
:101BF000006941F6DF7108405149086108460069F3
:101C000040F0100008611DB100205049088002E03A
:101C1000A5204E4908804FF43020FFF70CFE044603
:101C2000052C10D04648006941F6EF710840444940
:101C3000086108E0052C06D04148006941F6DF71D3
:101C400008403F490861204630BDF0B505460E46C4
:101C5000174604243B483A4988603B488860E002C4
:101C6000FFF7E9FD0446042C19D13548006940F01E
:101C700010003349086147F0F800304328433349E6
:101C8000891C0880E002FFF7D6FD0446052C06D02B
:101C90002B48006941F6EF71084029490861204648
:101CA000F0BD2748C069800870472548006A704722
:101CB00000202349096811F0200F01D0012000E025
:101CC0000020704729B11E4A126902431C4B1A6159
:101CD00004E01B4A12698243194B1A61704701469E
:101CE0000020012908D1164AD26912F0010F01D053
:101CF000012008E0002006E0114AD2680A4201D023
:101D0000012000E0002070470D49C86070470420A2
:101D10000B49C96811F0010F01D001200EE00849FC
:101D2000C96811F0040F01D0022007E00449C96816
:101D300011F0100F01D0032000E0042070470000D4
:101D40000020024023016745AB89EFCD00F8FF1F5B
:101D500010B50446CA48844208D10121042000F08D
:101D600027FB0021042000F023FB46E0C548844205
:101D700008D10121082000F01BFB0021082000F001
:101D800017FB3AE0C048844208D10121102000F03E
:101D90000FFB0021102000F00BFB2EE0BB4884421B
:101DA00008D10121202000F003FB0021202000F0B9
:101DB000FFFA22E0B648844208D10121402000F019
:101DC000F7FA0021402000F0F3FA16E0B14884420F
:101DD00008D10121802000F0EBFA0021802000F0E2
:101DE000E7FA0AE0AC48844207D10121801500F0EF
:101DF000DFFA0021A01500F0DBFA10BD10B50121BB
:101E0000084600F0D5FA0021012000F0D1FA10BDFB
:101E10002DE9F04102460025002600200023002481
:101E2000002791F803C00CF00F0591F803C01CF0D7
:101E3000100F03D091F802C04CEA050591F800C0DC
:101E4000BCF1000F31D0146800202BE04FF0010CE2
:101E50000CFA00F3B1F800C00CEA03069E4220D150
:101E600083004FF00F0C0CFA03F7BC4305FA03FC98
:101E70004CEA040491F803C0BCF1280F06D14FF0DE
:101E8000010C0CFA00FCC2F814C00AE091F803C07F
:101E9000BCF1480F05D14FF0010C0CFA00FCC2F860
:101EA00010C0401C0828D1D31460B1F800C0BCF1A8
:101EB000FF0F34DD546800202EE000F1080C4FF0D5
:101EC000010808FA0CF3B1F800C00CEA03069E42C0
:101ED00021D183004FF00F0C0CFA03F7BC4305FA35
:101EE00003FC4CEA040491F803C0BCF1280F05D1AF
:101EF00000F1080C08FA0CF8C2F8148091F803C03D
:101F0000BCF1480F07D100F1080C4FF0010808FAA6
:101F10000CF8C2F81080401C0828CED35460BDE8ED
:101F2000F0814FF6FF710180022181700421C170A0
:101F300070470246002093680B4201D0012000E068
:101F4000002070470146886880B270470246002032
:101F5000D3680B4201D0012000E000207047014609
:101F6000C86880B2704701617047416170470AB12B
:101F7000016100E041617047C16070474FF48032F9
:101F80000A43826181618261826982697047024687
:101F90000020424B18684FF68073184040EA021048
:101FA00008433E4B186070473D49C8617047F0B523
:101FB0000A46002300240021002500F00046B6F167
:101FC000004F02D1354EF16901E0344E7168C0F323
:101FD000034583B200F44016B6F5401F08D121F046
:101FE00070612E4E766826F070662C4F7E6012E08F
:101FF00000F48016B6F5801F06D1032606FA05F414
:10200000A14341F0706106E0460D360103FA06F681
:10201000B14341F0706122B1460D360103FA06F674
:10202000314300F00046B6F1004F02D11B4EF16182
:1020300001E01A4E7160F0BD30B500228B071C0F15
:102040000F2303FA04F2154B08338C1053F8243095
:102050009343124C08348D1044F8253023468C10DD
:1020600053F824308C07240F00FA04F423430B4C5C
:1020700008348D1044F8253030BD0A490860704797
:1020800000080140000C0140001001400014014014
:1020900000180140001C01400020014000000140E8
:1020A00000002042DC002042DD48006840F00100D2
:1020B000DB49086008464068DA490840D84948606A
:1020C00008460068D8490840D549086008460068B5
:1020D00020F4802008600846406820F4FE00486034
:1020E0004FF41F0088607047CD49096821F48031A2
:1020F000CB4A11601146096821F480211160B0F5C6
:10210000803F03D0B0F5802F0ED106E0C4490968A6
:1021100041F48031C24A116007E0C149096841F4C5
:10212000A021BF4A116000E000BF00BF704710B59A
:1021300001460022002300204A11012A02D1B84C96
:10214000236806E0022A02D1B54C236A01E0B44CB0
:10215000636A01F01F02012494401C4201D0012057
:1021600000E0002010BD38B50020009000240025BC
:1021700000BF3120FFF7DBFF05460098401C0090B0
:102180000098B0F5A06F01D0002DF2D03120FFF7FC
:10219000CEFF08B1012400E00024204638BD0146EE
:1021A00000209F4A106820F0F80040EAC10010604B
:1021B00070479E490860704702460020984B586857
:1021C00020F47C1042EA01031843954B5860704795
:1021D00096490866704701460020914A506820F0F1
:1021E00003000843506070478D48406800F00C00C1
:1021F0007047014600208A4A506820F0F0000843EA
:102200005060704701460020854A506820F4E06025
:1022100008435060704701460020814A506820F40E
:10222000605040EAC1005060704729B17C4A527A40
:1022300002437B4B5A7204E0794A527A8243784BCC
:102240005A7270477A490860704701460020744A04
:10225000506820F440400843506070470021754AA0
:1022600011706F4A82F82010012802D0042808D18A
:1022700003E001216F4A117004E005216D4A1170DD
:1022800000E000BF00BF70476B49086070476449B9
:10229000096A0143624A116270476749443908601C
:1022A000704730B500210022002400235C4D6D688A
:1022B00005F00C0121B1042905D0082923D105E03E
:1022C0005E4D056022E05D4D05601FE0544D6D6878
:1022D00005F47012524D6D6805F48034022505EB4B
:1022E00092421CB9564D554305600BE04C4D6D684C
:1022F00015F4003F03D0524D5543056002E04F4DA9
:102300005543056002E04D4D056000BF00BF444DE0
:102310006D6805F0F00109094A4D6B5C0568DD4008
:1023200045603F4D6D6805F4E061090A454D6B5C01
:102330004568DD4085603A4D6D6805F46051C90A15
:10234000404D6B5C4568DD40C560354D6D6805F4FA
:102350004041890B3C4D6B5CC568B5FBF3F50561ED
:1023600030BD29B12E4A526902432D4B5A6104E017
:102370002B4A526982432A4B5A61704729B1284A35
:1023800092690243264B9A6104E0254A926982438E
:10239000234B9A61704729B1214AD2690243204BED
:1023A000DA6104E01E4AD26982431D4BDA6170474C
:1023B00029B11B4AD2680243194BDA6004E0184A7B
:1023C000D2688243164BDA60704729B1144A126909
:1023D0000243134B1A6104E0114A12698243104B05
:1023E0001A61704714494039086070470F49C86442
:1023F00070470B49C87170470948406A40F08070C7
:1024000007494862704701460020054A92680A421F
:1024100001D0012000E00020704701498872704718
:10242000001002400000FFF8FFFFF6FE00004242ED
:10243000D8004242201002408004424200127A003A
:1024400000093D00A4000020B400002010B504469F
:10245000FB48844209D101218803FFF7A9FF00212D
:102460004FF48040FFF7A4FF32E0F648844209D1E0
:1024700001214804FFF7A9FF00214FF40030FFF7C6
:10248000A4FF25E0F048844209D101218804FFF728
:102490009CFF00214FF48020FFF797FF18E0EB48E6
:1024A000844209D10121C804FFF78FFF00214FF4B6
:1024B0000020FFF78AFF0BE0E548844208D10121A4
:1024C0000805FFF782FF00214FF48010FFF77DFF22
:1024D00010BD2DE9F04786B005460E460024A24601
:1024E00000BFA1460027B08900B100BF2F462C8A4B
:1024F0004CF6FF700440F08804432C82AC894EF601
:10250000F3100440B08831890843718908430443BB
:10251000AC81AC8A4FF6FF400440B0890443AC82E2
:1025200001A8FFF7BEFEC648874202D1DDF810A021
:1025300001E0DDF80CA0A88910F4004F08D00AEBE8
:10254000CA0000EB0A1031684900B0FBF1F807E05F
:102550000AEBCA0000EB0A1031688900B0FBF1F801
:102560006420B8FBF0F004012009642101FB10890C
:10257000A88910F4004F08D0322000EBC900B0FB4E
:10258000F1F000F00700044308E0322000EB0910EE
:102590006421B0FBF1F000F00F0004432C8106B081
:1025A000BDE8F0874FF41651016000218180C180A1
:1025B00001810C21418100218181704710B50246C3
:1025C0000020108A4FF2FF0318400B884C882343E9
:1025D0008C882343CC8823431843108210BD0021EC
:1025E000018041808180C180704721B1828942F49D
:1025F0000052828104E082894DF6FF731A40828185
:102600007047F0B503460024002600250020A1F500
:1026100010676A3F00D100BF1846C1F3421401F0B1
:102620001F06012707FA06F5012C01D10C3004E042
:10263000022C01D1103000E014301AB107682F438A
:10264000076002E00768AF430760F0BD1AB1838AF4
:102650000B43838202E0838A8B4383827047028A22
:102660004FF6F0731A400282028A0A4302827047D0
:1026700082894FF2FF731A40828182890A438281E4
:10268000704721B1828942F00202828104E082898E
:102690004FF6FD731A4082817047028A4FF6DF734E
:1026A0001A400282028A0A430282704721B1028ADA
:1026B00042F48042028204E0028A4BF6FF731A4021
:1026C00002827047C1F30802828070470146888801
:1026D000C0F308007047818941F001018181704792
:1026E000028BD2B20283028B42EA0122028370473C
:1026F000028B02F47F420283028B0A4302837047FB
:1027000021B1828A42F02002828204E0828A4FF65E
:10271000DF731A408282704721B1828A42F0100230
:10272000828204E0828A4FF6EF731A4082827047F9
:1027300021B1828A42F00802828204E0828A4FF646
:10274000F7731A408282704721B1828942F40042B5
:10275000828103E08289C2F30E028281704721B137
:10276000828A42F40062828204E0828A4FF2FF731E
:102770001A4082827047828A4FF6FB731A40828227
:10278000828A0A438282704721B1828A42F0020221
:10279000828204E0828A4FF6FD731A40828270477B
:1027A00002460020B1F5007F00D100BF13880B4224
:1027B00001D0012000E00020704701F40072B2F562
:1027C000007F00D100BFCA430280704770B5024647
:1027D0000024002300250020A1F510666A3E00D1E8
:1027E00000BFC1F3421501F01F03012606FA03F3EF
:1027F000012D02D19689334006E0022D02D1168ABE
:10280000334001E0968A33400C12012606FA04F4A4
:102810001688344013B10CB1012000E0002070BDD7
:1028200010B500220023A1F510646A3C00D100BF5E
:102830000A1201249440A3B2DC43048010BD0000BE
:10284000003801400044004000480040004C004077
:102850000050004008B501213020FFF78FFD4FF4F4
:102860000070ADF8000048208DF803006946074865
:10287000FFF7CEFA0420ADF8000048208DF80300E1
:1028800069460348FFF7C4FA08BD00000010014084
:102890000014014010B54FF40061F948FFF763FBE5
:1028A0004FF48051F648FFF75EFB4FF48051F44837
:1028B000FFF75BFB4FF40061F148FFF756FB10BDDB
:1028C00010B54FF40061EE48FFF74DFB4FF4805117
:1028D000EB48FFF74AFB4FF48051E948FFF743FB11
:1028E00010BD10B54FF40061E548FFF73CFB4FF415
:1028F0000061E348FFF739FB10BD2DE9F0410546C3
:102900002C464FF40061DE48FFF72FFB00261CE049
:10291000274607F08007802F04D17901D848FFF7B8
:1029200022FB04E04FF48051D548FFF71EFB600600
:10293000040E4FF40061D248FFF715FB4FF400611D
:10294000CF48FFF712FB701CC6B2082EE0DBBDE8D3
:10295000F08110B50446FFF79DFF7820FFF7CDFF0B
:10296000FFF7BFFF0020FFF7C8FFFFF7BAFF2046C1
:10297000FFF7C3FFFFF7B5FFFFF7A2FF10BD10B5CC
:102980000446FFF787FF7820FFF7B7FFFFF7A9FF9F
:102990004020FFF7B2FFFFF7A4FF2046FFF7ADFF8F
:1029A000FFF79FFFFFF78CFF10BD70B505460C4683
:1029B0001CB12846FFF7E3FF02E02846FFF7C9FFF6
:1029C00070BD70B50646002419E004F1B001C8B22C
:1029D0000021FFF7EAFF00210846FFF7E6FF00218C
:1029E0001020FFF7E2FF002505E001213046FFF748
:1029F000DCFF681CC5B2802DF7DB601CC4B2082C5C
:102A0000E3DB70BD06E041F6650100E0491E0029E8
:102A1000FCD1401E0028F6D17047014605E0002099
:102A200001E0421CD0B27B28FBDB0A00A1F10101CE
:102A3000F5D1704770B504460D4605F1B001C8B236
:102A40000021FFF7B2FF102141EA14100021FFF727
:102A5000ACFF04F00F000021FFF7A7FF70BD10B519
:102A600000218D20FFF7A1FF00211420FFF79DFF1B
:102A70000021AF20FFF799FF10BD10B500218D2078
:102A8000FFF793FF00211020FFF78FFF0021AE20FA
:102A9000FFF78BFF10BD70B5002419E004F1B00101
:102AA000C8B20021FFF781FF00210846FFF77DFF34
:102AB00000211020FFF779FF002505E0012100200B
:102AC000FFF773FF681CC5B2802DF7DB601CC4B232
:102AD000082CE3DB70BD70B5002419E004F1B001EF
:102AE000C8B20021FFF761FF00210846FFF75DFF34
:102AF00000211020FFF759FF002505E001210846BD
:102B0000FFF753FF681CC5B2802DF7DB601CC4B211
:102B1000082CE3DB70BD2DE9F04107460E469046D8
:102B200000250024A8F12000C5B27F2F02DD002778
:102B3000B01CC6B231463846FFF77CFF002408E0DF
:102B400004EB05114F4A505C0121FFF72EFF601C7A
:102B5000C4B2082CF4DB701CC1B23846FFF76AFF20
:102B6000002409E004EB05110831464A505C0121BC
:102B7000FFF71BFF601CC4B2082CF3DBBDE8F0813B
:102B800010B50246012000E050430B00A1F1010402
:102B9000E1B2F9D110BD2DE9FF5F074691461D4610
:102BA0000E9E4FF0000A002433E0281B401EC1B2E5
:102BB0000A20FFF7E5FFB9FBF0F00A21B0FBF1F2C4
:102BC00001FB1208BAF1000F13D1681EA04210DDFC
:102BD000B8F1000F0BD1B34606EBDB71491001FBD6
:102BE0000471C8B220220199FFF795FF0FE04FF062
:102BF000010AB34606EBDB71491001FB0471C8B250
:102C000008F13001CAB20199FFF785FF00BF601CCF
:102C1000C4B2AC42C9DBBDE8FF9F2DE9F0410546D7
:102C20000C46164600270EE0F25D29462046FFF7C7
:102C300072FF04F10800C4B2782C02DD0024A81C45
:102C4000C5B2781CC7B2F05D0028EDD1BDE8F081B7
:102C50002DE9F05F06460F4690461C46DDF828A099
:102C60004FF0000BE11704EB5171C910B4EBC10137
:102C70000AD12046E11704EB5171C1F3C7050AE000
:102C800000100140A44B00082046E11704EB5171ED
:102C9000C910491CCDB23D4615E029463046FFF724
:102CA000C9FEB1460BE059460BF1010B1AF80100C1
:102CB0000121FFF77AFE09F1010000F0FF09C1458B
:102CC000F1DB681CC5B2A542E7DBBDE8F09F08B5A3
:102CD00001211020FFF752FB4FF4C050ADF8000067
:102CE00010208DF8030002208DF80200694681480B
:102CF000FFF78EF84FF4C0517E48FFF734F9C82033
:102D000000F0BEFF0021AE20FFF74FFE0021084675
:102D1000FFF74BFE00211020FFF747FE0021402067
:102D2000FFF743FE0021B020FFF73FFE0021812086
:102D3000FFF73BFE0021FF20FFF737FE0021A12017
:102D4000FFF733FE0021A620FFF72FFE0021A82069
:102D5000FFF72BFE00213F20FFF727FE0021C820B0
:102D6000FFF723FE0021D320FFF71FFE00210846B6
:102D7000FFF71BFE0021D520FFF717FE0021802062
:102D8000FFF713FE0021D820FFF70FFE00210520DA
:102D9000FFF70BFE0021D920FFF707FE0021F120ED
:102DA000FFF703FE0021DA20FFF7FFFD00211220CC
:102DB000FFF7FBFD0021DB20FFF7F7FD00213020AE
:102DC000FFF7F3FD00218D20FFF7EFFD0021142018
:102DD000FFF7EBFD0021AF20FFF7E7FDFFF75BFEFC
:102DE00008BD1EB544A41CCC8DE81C004FF47A72BB
:102DF000B0FBF2F21DF802200A704FF47A72B0FBB9
:102E0000F2F302FB13026423B2FBF3F21DF802207B
:102E10004A706422B0FBF2F302FB13020A23B2FBF6
:102E2000F3F21DF802208A700A22B0FBF2F302FBD3
:102E300013021DF80220CA701EBD3EB504460D46A1
:102E40002DA207CA8DE807002E4A02232046E1176B
:102E500000F073FF1DF8000028702B4894FBF0F180
:102E600000FB1140294990FBF1F01DF8000068704B
:102E7000084694FBF0F100FB1140254990FBF1F06E
:102E80001DF80000A870084694FBF0F100FB11400B
:102E900042F2107190FBF1F01DF80000E870084656
:102EA00094FBF0F100FB11404FF47A7190FBF1F0CC
:102EB0001DF800002871084694FBF0F100FB11405A
:102EC000642190FBF1F01DF800006871642094FB10
:102ED000F0F100FB11400A2190FBF1F01DF8000019
:102EE000A8710A2094FBF0F100FB11401DF80000CE
:102EF000E8713EBD00100140303132333435363791
:102F00003839000000E40B548096980040420F00CE
:102F1000A086010000B585B0FE48FEF713FA002038
:102F200000908DF804008DF805004FF460200290A9
:102F30000020039001208DF810006946F548FEF747
:102F400028FA0121F348FEF750FAF248FEF76FFA2B
:102F500000BFF048FEF770FA0028FAD1ED48FEF7FE
:102F600075FA00BFEB48FEF776FA0028FAD105B0F3
:102F700000BD08B501211C20FFF700FA3F20ADF885
:102F8000000000208DF8030003208DF80200694640
:102F9000E148FEF73DFFFF20ADF8000000208DF86E
:102FA000030003208DF802006946DC48FEF730FF7D
:102FB0000320ADF8000000208DF8030003208DF8F9
:102FC00002006946D648FEF723FF08BD10B501216F
:102FD0004802FFF7D3F94FF40040FFF736F910BD70
:102FE00010B5FFF7F3FFFFF7C4FFFFF793FF10BD26
:102FF00010B50446072301222146C648FEF761FAB0
:103000000121C448FEF731FA00BF0221C148FEF792
:103010009DFB0028F9D0BF48FEF7BAFA10BD10B5E5
:1030200004462046FFF7E4FFBE4921F8140010BD16
:1030300070B50546102D29D2DFE805F0080A0C0E00
:1030400010121416181A1C1E2022242608241DE013
:1030500009241BE00E2419E00F2417E0062415E0D4
:10306000072413E0042411E005240FE002240DE0FE
:1030700003240BE0002409E0012407E00C2405E010
:103080000D2403E00A2401E00B2400BF00BF20460A
:10309000FFF7C5FFA34830F8140070BD70B50546B2
:1030A000002400BF06E02046FFF7C2FF25F8020B10
:1030B000601CC4B2102CF6DB70BD10B59A480078C5
:1030C000401C994908700846007832287DDA0020B3
:1030D000FFF7AEFF04469549FFF783FE934A0021B0
:1030E0000846FFF79AFD0120FFF7A2FF04468F492B
:1030F000FFF777FE8D4A28210020FFF78EFD022082
:10310000FFF796FF04468949FFF76BFE874A502177
:103110000020FFF782FD0320FFF78AFF0446834962
:10312000FFF75FFE814A00210220FFF776FD0420B1
:10313000FFF77EFF04467D49FFF753FE7B4A2821B7
:103140000220FFF76AFD0520FFF772FF044677496A
:10315000FFF747FE754A50210220FFF75EFD06206B
:10316000FFF766FF04467149FFF73BFE6F4A0021F7
:103170000420FFF752FD0720FFF75AFF04466B4972
:10318000FFF72FFE694A28210420FFF746FD08209B
:10319000FFF74EFF04466549FFF723FE634A5021BF
:1031A0000420FFF73AFD0920FFF742FF04465F497C
:1031B000FFF717FE5D4A00210620FFF72EFD0A20CB
:1031C000FFF736FF0446594900E016E0FFF709FE15
:1031D000564A28210620FFF720FD0B20FFF728FF85
:1031E00004465249FFF7FDFD504A50210620FFF7E3
:1031F00014FD022000F044FD3FE04B4800783228E7
:1032000001D1FFF748FC0C20FFF712FF04464749A5
:10321000FFF7E7FD454A00210846FFF7FEFC0D20B9
:10322000FFF706FF04464149FFF7DBFD3F4A28212F
:103230000020FFF7F2FC0E20FFF7FAFE04463B49A0
:10324000FFF7CFFD394A50210020FFF7E6FC0F20A1
:10325000FFF7EEFE04463549FFF7C3FD334A002170
:103260000220FFF7DAFC022000F00AFD2E48007869
:10327000642802DD00202C49087010BD2DE9F04FB4
:103280008DB04FF0000B00200C90824696E00AF1C2
:103290001301274A32F811201031254B33F8111051
:1032A000501A01F0D6F8CDE906010AF11301204ABF
:1032B00032F8112020311E4B33F81110501A01F052
:1032C000C8F8804600221B4B01F0EEF8CDE904015E
:1032D000DDE9062300F008FF06460022164B01F048
:1032E000E1F9CDE90801584601F0D2FA0446DDE9DA
:1032F000082300F051FECDE90A0100F01BFE8346D1
:103300000AF1010001F0A5F8CDE906010AF1130167
:10331000074A13E00024014000100140000801406A
:10332000000C0140D4010020B8000020B9000020AA
:10333000E80000200070A7400058AB4032F8112090
:103340001031F84B33F81110501A01F082F8CDE922
:1033500000010AF11301F34A32F811202031F14B38
:1033600033F81110501A01F074F806460022EE4BA3
:1033700001F09AF88046DDE9002300F0B5FE002256
:10338000EA4BCDE9020101F08DF9CDE90401DDE957
:10339000062301F089F8CDE90A010C9801F078FACA
:1033A000CDE90801DDE90A2300F0F6FD044600F04E
:1033B000C1FD0C900AF1010000F0FF0ABAF1100FF4
:1033C000FFF665AF584601F063FA06460F460C98C3
:1033D00001F05EFA80460022D54B01F065F83246D6
:1033E0003B46CDE90A0100F07FFE044601F004F8F7
:1033F000CC49A1F886000DB0BDE8F08F2DE9F04F63
:1034000097B000201590149020210CA800F0B9FC72
:103410004FF000090CA8FFF741FEFFF72FFF002433
:103420007EE004F11301BF4A32F811201031BD4B88
:1034300033F81110501A01F00CF8CDE9060104F12F
:103440001301B84A32F811100CAA32F81420881A65
:1034500000F0FFFF07460022B34B01F025F8CDE94D
:103460000401DDE9062300F03FFE0022AF4BCDE969
:10347000080101F017F905460E46159801F008FA03
:1034800082462A46334600F087FDCDE90A0100F066
:1034900051FD1590601C00F0DCFFCDE9040104F142
:1034A0001301A04A32F8112010319E4B33F811104D
:1034B000501A00F0CEFF05460E4604F11301994A5A
:1034C00032F811100CAA32F81420881A00F0C1FF4B
:1034D00082460022944B00F0E7FF07462A46334617
:1034E00000F002FE0022914BCDE9000101F0DAF874
:1034F000CDE90201DDE9042300F0D6FFCDE90801A2
:10350000149801F0C5F9CDE90601DDE9082300F0C2
:1035100043FDCDE90A0100F00DFD1490601CC4B21A
:10352000102CFFF67EAF159801F0B2F982468B465B
:10353000149801F0ADF900227D4BCDE9060100F0B1
:10354000B3FF52465B46CDE9080100F0CDFD0746CA
:1035500088467449B1F8860000F092FF3A46434627
:10356000CDE90A0101F0AAF8054600F015FF8146F1
:10357000B9F1000F08DA00206A49A1F88800C9F102
:103580000000A1F88A0005E001206649A1F8880042
:10359000A1F88A9017B0BDE8F08F2DE9F041002521
:1035A00000260027012063490860B7E162480068EF
:1035B0000028FAD1052000F063FB5F48006800286E
:1035C000F3D10027FFF767FA0CE0781C87B20120DF
:1035D00000F056FBB7F5487F04DD002701260020E8
:1035E00054490860544800680028EED0012E00D1EC
:1035F00095E1681CC5B243E0FFF75FFD00204F492D
:1036000008604FF001004E49C1F89C014FF03200B4
:1036100000F036FB4B48006870BB142000F030FB14
:103620004848006840BB4348006808B9012000E0F2
:103630000020404908604448FFF730FD002409E0BD
:10364000414830F81410374A04F1130022F81010E2
:10365000601CC4B2102CF3DB462232493B4800F018
:10366000A6F9642000F00CFB3248006808B901207C
:1036700000E000202F4908602F48006800B903E0EF
:10368000012D01D1002EB7D000BF6CE0FFF715FD72
:1036900000202F4908604FF001002949C1F8980126
:1036A0004FF0320000F0ECFA26480068C8BB142046
:1036B00000F0E6FA2348006898BB1E48006808B985
:1036C000012000E000201B4908602248FFF7E6FCCB
:1036D000002417E01F4830F81410124A04F12300A8
:1036E00022F81010184931F814101A4A32F8142030
:1036F000881800EBD071C1F34F010A4A22F8141068
:10370000601CC4B2102CE5DB462206490F4800F0CD
:103710004EF9642000F0B4FA06480068E0B90120D0
:103720001BE01CE0E80000200070A7400058AB4000
:1037300000408F40BC01224224012242B481214238
:1037400000002242088122427401002000F8000893
:103750009C012242940100200020724908607248B6
:10376000006800B903E0022D01D1002E8ED000BF09
:103770002FE0FFF7A2FC00206C4908604FF0010029
:103780006B49C1F8BC014FF0320000F079FA69488A
:103790000068D0B9142000F073FA66480068A0B938
:1037A0006548006808B9012000E00020624908600F
:1037B0005F48D0F8B00108B9012000E000205F495F
:1037C000088446225E4800F0F2F85748006800B9C5
:1037D00003E0032D01D1002ECBD000BF2FE0FFF777
:1037E0006CFC0020574908604FF001005049C1F8B7
:1037F000B8014FF0320000F043FA4E480068D0B9EB
:10380000142000F03DFA4B480068A0B94E4800680B
:1038100008B9012000E000204B4908604448D0F876
:10382000AC0108B9012000E0002044494884462248
:10383000434800F0BCF83C48006800B903E0042DA0
:1038400001D1002ECBD000BF63E0FFF7D7FD3B488E
:10385000B0F8880028B93DA227210420FFF7DDF940
:1038600004E03BA227210420FFF7D7F93349B1F840
:103870008A003849FFF7B5FA364A30210420FFF7AD
:10388000CCF90020344908604FF001002849C1F804
:10389000B4014FF01E0000F0F3F92648006880BB29
:1038A000142000F0EDF92348006850BB1D48006863
:1038B00008B9012000E000201A4908602748FFF7F6
:1038C000EDFB002409E0254830F814101B4A04F1F0
:1038D000330022F81010601CC4B2102CF3DBFFF789
:1038E000CDFC46221549164800F061F8642000F02E
:1038F000C7F90C48006808B9012000E00020094918
:1039000008600948006820B90025012005490860C1
:1039100003E0052D01D1002E97D000BF46E600BF81
:10392000BDE8F081BC0122422401224298012242DA
:103930000080214208812242B0812142E80000201B
:1039400000F80008BC812142AC8121422D0000001A
:1039500020000000B9000020B8812142B4010020FD
:103960000146088870472DE9F04105460E46174686
:10397000002407E036F814102846FEF772F8AD1C54
:10398000601C84B2BC42F5DBBDE8F08130B5034673
:103990000C461546002207E01846FFF7E1FF24F821
:1039A00012009B1C501C82B2AA42F5DB30BD2DE9EF
:1039B000F05F80468A461746B8F1006F02D3374859
:1039C000804501D3BDE8F09FFDF703FFA8F1006B30
:1039D0004FEA9B25CBF34809C9F50074A74200DCE8
:1039E0003C464DE04FF0006101EB85208A142C49E4
:1039F000FFF7CCFF00260BE009EB0600284931F861
:103A00001000A0F57F41FF3900D003E0701C86B2A2
:103A1000A642F1DB00BFA6421BDA4FF0006101EBCA
:103A20008520FDF71BFF002608E03AF8160006EB9C
:103A300009011B4A22F81100701C86B2A642F4DB71
:103A40004FF0006101EB85208A141549FFF78BFFC9
:103A500004E0224651464046FFF785FFA74200D1C9
:103A60000FE06D1C4FF000090AEB440AA044381B1C
:103A700087B2B7F5007F02DD4FF4007400E03C46EA
:103A8000B0E700BFFDF7B1FE00BF9BE713B50446EA
:103A9000012201A92046FFF78AFF1CBD0000010892
:103AA000F401002008B501211920FEF767FC01216F
:103AB0001448FEF77CFA4FF6F070ADF800001020C5
:103AC0008DF8030003208DF8020069460E48FEF7CA
:103AD0009FF94FF6F0710C48FEF747FA4EF2C0001E
:103AE000ADF8000010208DF8030003208DF80200CF
:103AF00069460648FEF78CF94EF2C0010348FEF70E
:103B000034FA08BD00043000000C014000100140F0
:103B100000B587B001218803FEF730FC01210420A5
:103B2000FEF72CFC01210846FEF728FC4FF400703C
:103B3000ADF8180018208DF81B0003208DF81A002E
:103B400006A92648FEF764F94FF48060ADF8180026
:103B500004208DF81B0006A92048FEF759F94FF400
:103B6000165002900020ADF80C00ADF80E00ADF834
:103B70001000ADF814000C20ADF8120002A918488E
:103B8000FEF7A7FC01211648FEF72FFD012240F2A7
:103B900025511348FEF735FD4FF4A060FDF764FB97
:103BA00025208DF8040001208DF8050002208DF8F5
:103BB000060001208DF8070001A8FDF75AFB07B0A9
:103BC00000BD10B540F225510548FEF7FFFD20B1BC
:103BD0000348FEF77BFD0349087010BD0008014053
:103BE00000380140C100002030B5354800684FF46E
:103BF0007A72B0FBF2F1B1F1807F01D301201DE0B8
:103C000021F07F40401E4FF0E022506150170F22FC
:103C1000002807DA13071D0E2A4B00F00F04241F9B
:103C20001D5503E013071C0E274B1C5400BF00203A
:103C30004FF0E022906107201061002008B100BF22
:103C4000FEE74FF0E020006920F001004FF0E02196
:103C5000086130BD01B54FF47A710098B0FBF1F006
:103C60001A4908604FF0E020006940F001004FF071
:103C7000E021086100BF154800680028FBD108BD9D
:103C800001B51249009808604FF0E020006940F04B
:103C900001004FF0E021086100BF0C4800680028D7
:103CA000FBD108BD0948006820B108480068401EE3
:103CB00006490860704710B5FFF7F4FF10BD00001B
:103CC0009000002018ED00E000E400E0C4000020B7
:103CD00008B500200090FEF7E7F90120FEF769FA29
:103CE00000BF2120FEF723FA0028FAD01020FDF7AC
:103CF00065FD0220FDF74EFD0020FEF77AFA4FF435
:103D00008060FEF77FFA0020FEF785FA4FF4E0119D
:103D10000020FEF751FA0120FEF75AFA00BF3920C1
:103D2000FEF705FA0028FAD00220FEF754FA00BF89
:103D3000FEF75AFA0828FBD108BD10B54C1084EAEA
:103D4000530404D54042C1F1000138BF491E1B4253
:103D500004D55242C3F1000338BF5B1E00F03BF8AC
:103D600014F0804F04D04042C1F1000138BF491E19
:103D700014F0004F04D05242C3F1000338BF5B1E61
:103D800010BD4FF0000200B5134694469646203908
:103D900022BFA0E80C50A0E80C50B1F12001BFF404
:103DA000F7AF090728BFA0E80C5048BF0CC05DF86A
:103DB00004EB890028BF40F8042B08BF704748BFB8
:103DC00020F8022B11F0804F18BF00F8012B70472C
:103DD00070477047704753EA020C00F069802DE984
:103DE000F04B4FF00006002B1FBFB3FA83F503FA28
:103DF00005F424FA05F65E4012BF1643B2FA82F5C6
:103E000002FA05F4C5F120051EBF22FA05FC44EABA
:103E10000C04203556EA044C4FEA144418BF641CC5
:103E20004FF000084FF00009904271EB030C39D3BA
:103E3000002919BFB1FA81F701FA07F6B0FA80F745
:103E400000FA07F6C7F120071EBF20FA07FC46EA72
:103E50000C062037B6FBF4FCA7EB0507103F07F074
:103E60001F0BCBF120060CFA0BFB2CFA06F644BF15
:103E7000B3460026202FA4BF5E464FF0000B5BEA3E
:103E8000060C08BF4FF0010B19EB0B09ABFB027CD2
:103E900048EB0608C01B06FB02CC0BFB03CC71EB06
:103EA0000C01C1E70B46024641464846BDE8F08B8F
:103EB00013B54FF000004FF00001AFF30080BDE8F4
:103EC0001C407047754600F029F8AE46050069466B
:103ED000534620F00700854618B020B5FDF7B2F92B
:103EE000BDE820404FF000064FF000074FF00008FB
:103EF0004FF0000B21F00701AC46ACE8C009ACE87C
:103F0000C009ACE8C009ACE8C0098D46704704465A
:103F1000AFF300802046FCF752F9000000487047DC
:103F2000F405002001491820ABBEFEE72600020080
:103F30007047000021F00042A2F16052B2F5801FEC
:103F400001F0004328BFD2F17F6C0BD95FEA001C5F
:103F500043EAC20242EB507018BF704728BF20F0FE
:103F600001007047B2F5801FBCBF184670474FEA8A
:103F7000410C1CF5001F02D2084600F0FABC70B5D7
:103F800000F03CFB00000089FFF7F6BF4FF0004057
:103F9000A0F580007047000010B591EA030F48BFFC
:103FA00083F0004300F19283841A71EB030C05D275
:103FB000121943EB0C03001B61EB0C01DFF824E149
:103FC0004FEA1154A4EB135C1EEA430F18BF9EEA9C
:103FD000445F73D023EA0E03DCF1200E21EA045182
:103FE00043F4801332D322FA0CFE10EB0E0023FAB6
:103FF0000CFE41EB0E01CCF1200E03FA0EFE10EB8D
:104000000E0051F10001B1F5801FCCF1200E32D22B
:1040100001EB045112FA0EF2BDE8104058BF704790
:10402000401C38BF5FEA420218BF7047002814BF27
:1040300020F0010041F100014FEA410313F5001F98
:1040400038BF7047A1F1C04100F026BB012A43EB05
:104050000302ACF1200CDCF11F0E32BF4FF0000E5A
:1040600023FA0CF310EB030041EB0451B4EB115FA6
:10407000D0D0A1EB045101F5801149085FEA30006E
:1040800001EB04510ED350F1000038BF12FA0EFEBE
:1040900008D1BDE81040C9E7401C38BF5FEA4202C2
:1040A000CAD1C3E7BDE810404FEA410313F5001F32
:1040B00038BF7047A1F1C04100F0EEBA9EEA445FFC
:1040C00008D011EA5E0FBDE8104004BF01F00041C6
:1040D00000207047BDE8104070B500F08FFA00BFB7
:1040E00064FBBE3E0000E0FF2DE9C04130B4DFF8C4
:1040F000A0C23CEA111418BF3CEA131400F0EC8093
:1041000081EA03051CEA111444EAD57418BF1CEABD
:10411000131500F0C780A4EB05044FF0004545EAF5
:10412000C12145EAC32341EA505143EA525304F105
:104130007F74994204F500344FEAC0204FEAC2224E
:1041400008BF904200F09C804FEA13650FF24016C2
:10415000765D4FEA134506FB05F7C7F1807706FB4E
:1041600007F74FEAD737A7FB03687642C8F58038D0
:10417000A7FB06CE38BFA8F1010807FB08E64FF001
:10418000000EA6FB028CE6FB03CEDCF1000CCEF1A8
:10419000004E38BFAEF1010EA6FB0C584FF00007E1
:1041A0004FF00005E6FB0E87A1FB08C6A0FB07CE7B
:1041B00016EB0E0645F10005E1FB076515F1E04E33
:1041C0007EBFA4F580345FEA46066D4116F1800794
:1041D00045F100054FEA17274FEA066647EA0567EB
:1041E000A6F1DE46B6F1805F4FEA15251FD93846A5
:1041F00024F0010C05EBC471BCF1FE6F01EB0C1156
:1042000002D8F0BCBDE8008124425CBF01F5801EED
:104210009EEAC47F02D4F0BCBDE80081244238D4B9
:10422000F0BCA1F1C041BDE8004100F035BA4FEA51
:10423000D22242EA43524FEAD323A7FB02864FEA37
:10424000D02040EA415007FB03661EEA0E0F4FEAFA
:10425000D12105FB026658BFA6EB0056B6EB00560F
:104260004FEA520E4EEAC37E18EB0E0E56EB530E7B
:10427000BDD518EB02085E417F1C55F10005B6E77D
:104280004FF480154FF000074FF000064FF0000884
:10429000ADE7F0BC4FF0000001F1C04101F000417A
:1042A000BDE8008111EA0C1F0CEA131500D00CE0E8
:1042B00013EA0C1F00F025804FF00000F0BC81EAEB
:1042C000030101F00041BDE80081F0BCBDE8004100
:1042D00081EA030100F0E0B9F0BCBDE8004170B52F
:1042E00000F08CF9097EFC3E00F007B881EA03017A
:1042F0004FF0000001F00041704781EA030100F037
:10430000CBB9F0BCBDE800414FF000002149704737
:10431000FFFDFBF9F7F5F4F2F0EEEDEBE9E8E6E48A
:10432000E3E1E0DEDDDBDAD8D7D5D4D3D1D0CFCD11
:10433000CCCBCAC8C7C6C5C4C2C1C0BFBEBDBCBB4A
:10434000BAB9B8B7B6B5B4B3B2B1B0AFAEADACAB45
:10435000AAA9A8A8A7A6A5A4A3A3A2A1A09F9F9E1F
:104360009D9C9C9B9A9999989797969595949393D1
:10437000929191908F8F8E8E8D8C8C8B8B8A898968
:1043800088888787868585848483838282818180EB
:104390000000FF070000F87F4FEA41034FEA535344
:1043A000A3F58063D3F11E03C8BFD3F1210C0CDD4C
:1043B0004FF0004242EAC12242EA505232FA03FC74
:1043C0008CEAE17CACEBE1707047102BC4BF00209D
:1043D000704703F5787CBCF1FF3F04D06FF00042DA
:1043E00082EA2100704770B500F008F949922480F4
:1043F00000207047F2E700004FEA1153A3F58063F5
:10440000D3F11E03A8BFD3F1200C08DB4FF000420C
:1044100042EAC12252EA505232FA03F0704709428E
:104420000BD4102BC4BF0020704703F5787CBCF17F
:10443000FF3F05D04FF0FF3070474FF0000070474E
:1044400070B500F0DBF800BF49922480002070476F
:10445000F0E710F0004248BF4042B0FA80F310FA93
:1044600003F10AD0C3F11D0303F580634FEA415005
:1044700002EB035202EBD12170474FF0000070476E
:10448000B0FA80F310FA03F10AD0C3F11D0303F56B
:1044900080634FEA41504FEA035202EBD12170474B
:1044A0004FF0000070470000DFF848C170B51CEA0B
:1044B000111E1EBF1CEA13159EEA0C0F95EA0C0F85
:1044C00000F06F8081EA030423EA4C134EEAD47EA5
:1044D00021EA4C1141F4801143F48013AE44A1FB56
:1044E000024CA0FB0365AEF17F7E361955EB0C053F
:1044F000A1FB034C4CF10003A0FB021C16EB0C06C5
:10450000654153F10003094218BF46F0010613F458
:10451000007F0BD14FEA03314FEA0530340341EA03
:10452000155140EA16506FF003020AE04FEAC3212A
:104530004FEAC520F40241EA555140EA56506FF067
:10454000020202EB2E4201EB025585EACE710AD03F
:104550005FEA440C18BF24F0004450F1000041F120
:10456000000120EAD47040F2FE7C624500D270BDAA
:10457000A84214BF4FF080444FF04044002E08BFC3
:104580000024BEF1806FA8BFA1F1C041BDE870401A
:1045900080F282804FF0000001F1C04101F0004143
:1045A00070479EEA0C0F0CEA131518BF95EA0C0F22
:1045B00006D04FF0000081EA030E0EF0004170BDFE
:1045C00000F01CF88900013E00F007B800F009B8BF
:1045D0004FEA430C5FEA5C5C08D081EA030100F01B
:1045E0005BB84FEA410C5FEA5C5CF6D14FF000002B
:1045F000014970470000FF070000F87F0EF1020E2E
:104600002EF0030E5EF8046B364205D4012A43EB0C
:10461000030515F5001F12D8012841EB010C1CF50C
:10462000001F0CD80ED14FEAD17C15F5001F0CEB02
:104630004C0C0CF1020C08BF4CEBD37C04E04FF0A7
:10464000080C01E04FEAD37C0CEB4C0526FA05F68A
:1046500006F00706B6F1040C06D20EEB860CBDE898
:1046600070404CF0010C6047DFE80CF0090B0202CF
:104670004FF000414FF00000A1F5002170BD194638
:104680001046012851EB010418BFD4F5001484BF73
:10469000002001F0004170BD0808A0F500114FEAAC
:1046A0003101704791EA030F10B581F000413FF5E9
:1046B0007BAC83F0004300F009B8000010B591EA2C
:1046C000030F48BF83F000433FF56EAC841A71EBD3
:1046D000030C07D212198CF0004C43EB0C03001BA7
:1046E00061EB0C01DFF8A4E14FEA1154A4EB135C79
:1046F0001EEA430F18BF9EEA445F00F0B08023EA31
:104700006E03524221EA0451C3EB6E0338BF5B1EB5
:10471000DCF1200E25D322FA0CFE10EB0E0043FA3A
:104720000CFE41EB0E01CCF1200E03FA0EFE10EB55
:104730000E0051F10001CCF1200E29D412FA0EF234
:1047400001EB0451BDE8104058BF7047401C1CBF2E
:10475000B2F1004F704700280CBF491C20F0010047
:10476000704712EB020E43EB030218BF4FF0010E2D
:104770004EEA4202ACF1200CDCF11E0E54D943FA91
:104780000CFE10EB0E0051F1FF31CCF11E0ED5D511
:104790000EF1010E12FA0EFE404141EB010101EB58
:1047A000445C5FEA5C5C10D910EBDE7001EB0451F5
:1047B00038BFBEF1004FBDE8104018BF7047002859
:1047C0000CBF491C20F00100704730D24FEAD42CB6
:1047D00011F5001124F400641BD0B1FA81F20B3AF8
:1047E000A41AA41ED2F12003914030FA03F3194316
:1047F000904001EBCC71002C01EB0451BDE810405E
:10480000A8BF704701F1C0414FF0000001F0004126
:104810007047B0FA80F310FA03F100D110BDE41A2A
:10482000173C4805C90AE4E701EB045110BD4910E3
:1048300001EB0451BDE810404FEA300002E04FF0B8
:10484000000170474A0008BF0042F8D0B2F5001FCF
:1048500028BF704701F000414FF0000070479EEA0A
:10486000445F07D011EA5E0FBDE8104004BF00218D
:1048700000207047BDE8104070B5FFF7BFFE00BFD5
:1048800040DFF63E83F00041104670470000E0FF35
:1048900043004FEAD30C4FEA3C0C43401FBF400794
:1048A0000CF1605113F0FE4F70471CF0006F03D104
:1048B00000200CF0004170470CF0004343EA5070B8
:1048C00010B540EACC0000F00EF800BF00000092E6
:1048D0004FEA0001FFF7E0BE4FF000414FF000004B
:1048E000A1F5002170470EF1020E2EF0030E5EF8C6
:1048F000044B244204D44FEA4102B2F17F4F11D855
:104900004FEA4003B3F17F4F0CD80ED14FEAD07C71
:10491000B2F17F4F0CEB4C0C0CF1020C08BF4CEBCE
:10492000D17C04E04FF0080C01E04FEAD17C0CEBA5
:104930004C0324FA03F404F00704B4F1040C06D287
:104940000EEB840CBDE810404CF0010C6047DFE832
:104950000CF0070802024FF00040A0F5800010BDE7
:104960000846420018BFD2F1807288BF00F00040B4
:1049700010BDFF2141EAD050C00570470000000083
:1049800000000000002F00000000070007000014D6
:104990007F147F1400242A7F2A12006264081323E4
:1049A00000364955225000000503000000001C227B
:1049B0004100000041221C000014083E08140008B9
:1049C000083E0808000000A0600000080808080869
:1049D000000060600000002010080402003E514901
:1049E000453E0000427F400000426151494600219F
:1049F00041454B31001814127F10002745454539B9
:104A0000003C4A4949300001710905030036494913
:104A1000493600064949291E0000363600000000CC
:104A20005636000000081422410000141414141417
:104A300000004122140800020151090600324959C0
:104A4000513E007C1211127C007F49494936003EDC
:104A500041414122007F4141221C007F4949494197
:104A6000007F09090901003E4149497A007F080891
:104A7000087F0000417F4100002040413F01007F4E
:104A800008142241007F40404040007F020C027F1A
:104A9000007F0408107F003E4141413E007F09092C
:104AA0000906003E4151215E007F09192946004652
:104AB000494949310001017F0101003F4040403F29
:104AC000001F2040201F003F4038403F0063140873
:104AD000146300070870080700615149454300004E
:104AE0007F41410000552A552A55000041417F0071
:104AF0000004020102040040404040400000010266
:104B00000400002054545478007F4844443800384E
:104B10004444442000384444487F003854545418D6
:104B200000087E0901020018A4A4A47C007F0804E8
:104B300004780000447D4000004080847D00007FB8
:104B4000102844000000417F4000007C04180478D5
:104B5000007C0804047800384444443800FC2424D1
:104B600024180018242418FC007C080404080048B9
:104B70005454542000043F444020003C4040207CDA
:104B8000001C2040201C003C4030403C00442810C9
:104B90002844001CA0A0A07C004464544C4414147D
:104BA00014141414000000000000000000000000B5
:104BB00000000000000000F80000000000000033CA
:104BC0003000000000100C06100C06000000000071
:104BD0000000000040C07840C0784000043F04045A
:104BE0003F040400007088FC08300000001820FF1B
:104BF000211E0000F008F000E018000000211C0356
:104C00001E211E0000F00888700000001E212324D1
:104C10001927211010160E000000000000000000EF
:104C200000000000000000E018040200000000077F
:104C30001820400000020418E00000000040201886
:104C400007000000404080F0804040000202010F59
:104C500001020200000000F0000000000101011F3D
:104C600001010100000000000000000080B07000A1
:104C70000000000000000000000000000001010131
:104C800001010101000000000000000000303000C0
:104C9000000000000000000080601804006018069A
:104CA0000100000000E010080810E000000F1020D4
:104CB00020100F00001010F8000000000020203F1E
:104CC00020200000007008080888700000302824A8
:104CD0002221300000300888884830000018202049
:104CE00020110E000000C02010F80000000704246E
:104CF000243F240000F808888808080000192120B3
:104D000020110E0000E0108888180000000F11200C
:104D100020110E0000380808C83808000000003FC5
:104D2000000000000070880808887000001C222124
:104D300021221C0000E010080810E00000003122D1
:104D400022110F00000000C0C00000000000003071
:104D500030000000000000800000000000008060C3
:104D60000000000000008040201008000001020444
:104D7000081020004040404040404000040404042B
:104D800004040400000810204080000000201008E7
:104D900004020100007048080808F000000000301C
:104DA00036010000C030C828E810E00007182724AA
:104DB00023140B000000C038E0000000203C230258
:104DC0000227382008F8888888700000203F2020BB
:104DD00020110E00C03008080808380007182020ED
:104DE0002010080008F808080810E000203F2020E4
:104DF00020100F0008F88888E8081000203F2020C5
:104E00002320180008F88888E8081000203F2000B8
:104E100003000000C03008080838000007182020F0
:104E2000221E020008F808000008F808203F2101AF
:104E300001213F20000808F8080800000020203F5A
:104E40002020000000000808F8080800C0808080CA
:104E50007F00000008F888C028180800203F2001C3
:104E60002638200008F8080000000000203F20201D
:104E70002020300008F8F800F8F80800203F003F34
:104E8000003F200008F830C00008F808203F20004C
:104E900007183F00E01008080810E0000F1020205D
:104EA00020100F0008F808080808F000203F210132
:104EB00001010000E01008080810E0000F18242489
:104EC00038504F0008F8888888887000203F2000FC
:104ED000030C3020007088080808380000382021B2
:104EE00021221C00180808F8080818000000203FBC
:104EF0002000000008F808000008F808001F202023
:104F000020201F000878880000C8380800000738F3
:104F10000E010000F80800F80008F800033C070044
:104F2000073C0300081868808068180820302C03AC
:104F3000032C30200838C800C83808000000203F83
:104F40002000000010080808C83808002038262172
:104F500020201800000000FE020202000000007F76
:104F600040404000000C30C0000000000000000184
:104F70000638C00000020202FE000000004040406F
:104F80007F00000000000402020204000000000094
:104F90000000000000000000000000008080808011
:104FA00080808080000202040000000000000000F9
:104FB0000000000000008080808000000019242292
:104FC00022223F2008F8008080000000003F1120CE
:104FD00020110E000000008080800000000E1120D3
:104FE00020201100000000808088F800000E1120B1
:104FF00020103F200000808080800000001F2222BF
:1050000022221300008080F0888888180020203F2A
:10501000202000000000808080808000006B94943D
:105020009493600008F8008080800000203F2100F9
:1050300000203F2000809898000000000020203FC2
:1050400020200000000000809898000000C08080B0
:10505000807F000008F8000080808000203F24024C
:105060002D302000000808F8000000000020203F3C
:10507000202000008080808080808000203F2000F1
:105080003F20003F8080008080800000203F210082
:1050900000203F200000808080800000001F202032
:1050A00020201F00808000808000000080FFA12061
:1050B00020110E000000008080808000000E112072
:1050C00020A0FF80808080008080800020203F2101
:1050D00020000100000080808080800000332424B4
:1050E00024241900008080E0808000000000001F60
:1050F000202000008080000000808000001F202011
:1051000020103F20808080000080808000010E30D1
:105110000806010080800080008080800F300C0332
:105120000C300F0000808000808080000020312E35
:105130000E312000808080000080808080818E7011
:105140001806010000808080808080000021302CC3
:105150002221300000000000807C020200000000DC
:10516000003F404000000000FF0000000000000081
:10517000FF0000000002027C800000000040403F71
:10518000000000000006010102020404000000000B
:1051900000000000B451000800000020C80000001A
:1051A0006C0100087C520008C8000020900B000031
:1051B00088010008D007D007D007D007D007D00754
:1051C000D007D007D007D007D007D007D007D00727
:1051D000D007D007010001000000FF0FFF0FFF0FF5
:1051E000FF0FFF0FFF0FFF0FFF0FFF0FFF0FFF0F4F
:1051F000FF0FFF0FFF0FFF0FFF0F00000000000069
:10520000000000000000000000000000000000009E
:1052100000000000000000000000FF0FFF0FFF0F64
:10522000FF0FFF0FFF0FFF0F00000000FF0FFF0F2A
:10523000FF0FFF0FFF0FFF0FFF0F342101000000D2
:105240000000000000A24A0400000000000000006E
:10525000010203040607080900000000010203041C
:105260000102030406070809020406080030303072
:0C52700030000000000000000000000002
:0400000508000131BD
:00000001FF
